:020000022000DC
:10700000000004206975020091750200937502006A
:107010009575020097750200997502000000000046
:107020000000000000000000000000009B7502004E
:107030009D750200000000009F750200A17502000E
:10704000A59A0200A3750200A5750200A3750200AF
:10705000A3750200A3750200559E0200A3750200ED
:10706000A3750200A3750200A3750200A3750200B8
:10707000A3750200A3750200A3750200A3750200A8
:10708000A3750200BDE40200A3750200A37502000F
:10709000A3750200A3750200DDB50200A37502000E
:1070A000A3750200A3750200A3750200A375020078
:1070B000A3750200A375020000000000000000009C
:1070C000A3750200A3750200A3750200A375020058
:1070D000A3750200A3750200A3750200D986020001
:1070E000A3750200A3750200A37502000000000052
:1070F00000000000A375020000000000A37502005C
:10710000000000000000000000000000000000007F
:10711000000000000000000000000000000000006F
:10712000000000000000000000000000000000005F
:10713000000000000000000000000000000000004F
:10714000000000000000000000000000000000003F
:10715000000000000000000000000000000000002F
:10716000000000000000000000000000000000001F
:10717000000000000000000000000000000000000F
:1071800000000000000000000000000000000000FF
:1071900000000000000000000000000000000000EF
:1071A00000000000000000000000000000000000DF
:1071B00000000000000000000000000000000000CF
:1071C00000000000000000000000000000000000BF
:1071D00000000000000000000000000000000000AF
:1071E000000000000000000000000000000000009F
:1071F000000000000000000000000000000000008F
:107200000348044B834202D0034B03B11847704735
:1072100044240020442400200000000005480649C2
:107220000B1AD90F01EBA301491002D0034B03B194
:107230001847704744240020442400200000000028
:1072400010B5064C237843B9FFF7DAFF044B13B1AE
:107250000448AFF300800123237010BD58240020A0
:10726000000000003CA5030008B5044B1BB1044915
:107270000448AFF30080BDE80840CFE700000000FD
:107280005C2400203CA50300A3F5803A704700BFB2
:10729000154B002B08BF114B9D46FFF7F5FF002152
:1072A0008B460F461148124A121A10F03DF80C4B4B
:1072B000002B00D098470B4B002B00D098470020A4
:1072C000002104000D000B480FF00CFF0FF03EFFF3
:1072D000200029000FF032FD0FF00AFF0000080027
:1072E00000000000000000000000042058240020DE
:1072F000B43900201971030010B4034653E8000F9D
:1073000000EA010243E8002494F0000FF6D15DF892
:10731000044B704710B4814B1B68082B21D0804A66
:10732000D2F8883043F47003C2F88830BFF34F8F2F
:10733000BFF36F8F794B1B68082B00F0AA804FF0CA
:107340001023D3F80022002AC0F2B680D3F804320A
:10735000002BC0F2B180734B734A1A605DF8044B86
:1073600070474FF080414FF080520020C1F80C016F
:107370006E4BC1F81001C1F83805D2F80414C3F8F7
:107380002015D2F80814C3F82415D2F80C14C3F849
:107390002815D2F81014C3F82C15D2F81414C3F819
:1073A0003015D2F81814C3F83415D2F81C14C3F8E9
:1073B0004015D2F82014C3F84415D2F82414C3F8A9
:1073C0004815D2F82814C3F84C15D2F82C14C3F879
:1073D0005015D2F83014C3F85415D2F83414C3F849
:1073E0006015D2F83814C3F86415D2F83C04C3F819
:1073F00068054F49D2F84004C3F86C050968D2F813
:107400004424C3F87025052937D84A4B5B5C13B177
:10741000494B4A4A1A604A4B5B5C63B13F4B49494E
:107420001B68434AFB20C1F81805082B11687FF43C
:1074300076AF052921D8444B5B5C93B14348444B5C
:10744000364C02681B682468394922F00F0203F0A9
:107450000F031343082C096803607FF460AF05290C
:107460000BD83C4B5B5C43B12C4B3B4A1B684FF445
:107470000071082B11607FF452AF4FF08043D3F8B6
:107480000024D2077FF54BAF6FF00102C3F8002450
:1074900045E7274B1B68052B08D94FF010224FF00A
:1074A0008043D2F80822C3F8582548E72B4AD35C1A
:1074B000002B3FF444AFF0E7294A0123C2F804351A
:1074C000D2F80034002BFBD04FF010231221244AB5
:1074D000C3F80012D2F80034002BFBD04FF0102379
:1074E00012211F4AC3F80412D2F80034002BFBD03B
:1074F00000231B49C2F80435D1F80034002BFBD01F
:10750000BFF34F8F0649174BCA6802F4E06213437A
:10751000CB60BFF34F8F00BFFDE700BF300100100D
:1075200000ED00E0002300200090D00300C00040E8
:1075300034010010B48503008C56004048810300DC
:10754000B485030000F00040B4850300E40E004061
:1075500058020010B485030040960240AC85030039
:1075600000E001400400FA050649074A074B9B1A50
:1075700003DD043BC858D050FBDCFFF7CBFEFFF720
:1075800087FE0000E4A6030000230020582400200A
:10759000FEE7FEE7FEE7FEE7FEE7FEE7FEE7FEE7C3
:1075A000FEE7FEE7014B1B68184700BF742400206C
:1075B00030B44C689C4208D20025456009680160DF
:1075C00093420CD0002030BC704743600D680560CA
:1075D0000868E41A18449342C1E90004F2D1201E5D
:1075E00018BF012030BC704710B4D1E900439A4263
:1075F00028BF1A46C0E90042D1E90030801A13447E
:10760000C1E90030003818BF01205DF8044B704715
:107610004B689A4228BF1A4662B10B68C0E9003233
:10762000D1E90030801A1344C1E90030101E18BFA0
:10763000012070471346F1E710B5094B09491A6854
:10764000094C82B0002301208DF804008DF807302A
:10765000ADF8053001A823700B70904702B010BD43
:10766000A8250020AC2500207C240020704700BF06
:1076700000B583B00D4B0E4900228DF80420D3F8DD
:107680002025ADF80620D3F8C0040A4A096813681B
:1076900000280CBF4FF480704FF00120034301A875
:1076A0001360884703B05DF804FB00BF0070024020
:1076B000A825002084240020F8B54B680B4F934286
:1076C00028BF13461D460C4606461A46096838462A
:1076D0000FF090FDC6E90075D4E90030401B2B4443
:1076E000C4E90030003818BF0120F8BDB0250020E3
:1076F000F8B54B68934228BF13460D461C46064614
:107700005BB933607460D5E90032121B2344C5E9CC
:107710000032201E18BF0120F8BD044F096838460A
:107720001A460FF067FD3760ECE700BFB025002078
:1077300010B5184B1B68082B82B002D1164B0022E3
:107740001A60164B16499A7B0020032A08700AD04B
:107750001C687CB1134B01221A60BFF36F8FBFF31B
:107760004F8F02B010BD6FF480310F48FFF7C4FD9A
:1077700002B010BD6FF480310B48FFF7BDFD0B4B1D
:10778000ADF8064006221B688DF8042001A8984732
:1077900002B010BD300100101C7C02408824002083
:1077A0007D2400204C70024080240020A825002069
:1077B00010B5274BD3F80044C3F8004482B0BFF3A0
:1077C0006F8FBFF34F8FBFF36F8FBFF34F8FE10505
:1077D0000ED5204B20491A68022000238DF807306F
:1077E000ADF805308DF80400012301A80B70904717
:1077F000A2050DD5174B18491A68032000238DF8F0
:1078000004008DF80730ADF8053001A80B709047E3
:1078100063051AD5104B1A78BAB10D4C0F480121E7
:1078200000221A70C4F808150160BFF36F8FBFF310
:107830004F8F084BADF8052004211B688DF80720F9
:107840008DF804100DEB0100984702B010BD00BF89
:1078500000700240A82500207C24002058700240BF
:1078600070B53E4B93F900201C78002A82B01ADBD9
:107870003B4B3C491D680A6804F00F03103301209C
:1078800000FA03F31A432B420A600AD1364B8DF8F3
:10789000070006221B688DF806408DF8042001A819
:1078A000984702B070BD04F00F01304B2D4833F8FB
:1078B0001130026803F1804303F51C3301258D402C
:1078C0001E682A4309B20260DEB100221A60BFF3CB
:1078D0006F8FBFF34F8F264B802C1B6822D0082B55
:1078E00008BF244B244808BF1A60244B03EB011245
:1078F0000026927B0670032A4FEA011129D05B58BB
:107900003BB3174B1B682B40CBD117498DF8073081
:1079100006220B688DF806408DF8042001A89847D0
:1079200002B070BD082B08BF124B134908BF1A6084
:10793000134B93F89E200020032A087003D0D3F83D
:107940009030002BDDD16FF001010548FFF7D4FC2A
:10795000D7E7E9430248FFF7CFFCD2E7AC25002088
:107960008024002084240020A8250020DC8503003A
:10797000300100101C7C02407D24002018250020CE
:10798000882400202DE9F04FDFF824B2DFF8289298
:10799000DBF80040D9F80030234089B000F098802F
:1079A00013F0012400F0978094FAA4F4002C00F066
:1079B0009780B4FA84F70F2F3D461DD8DFF8FCB14D
:1079C0000FFA87FA0BEB0A164FEA0A1AB2895BF82C
:1079D0000A30716806A8984767F07F0801233C4683
:1079E0004FFA88F803FA07F708B94BF80A00FB4387
:1079F000019305F008072AE00123A7F1100503FA17
:107A000007F7634B5FFA85F803EB0816FB43019316
:107A100015F0080344464FFA85FA029369D14546AA
:107A20000022029205F594735A4A52F82330B28923
:107A300071683768039306A8B847069A1AB1079A7F
:107A4000039B93427BD8029FD04600B93060524BD3
:107A50001B68082B02D1514B82221A60D9F80020F2
:107A60000198B368079902400B44C9F800204C4ABA
:107A7000B360B8F1000F4FF001031370069B47DBB2
:107A8000002F4ED0434AAD00C2F8A0372823C2F8D9
:107A9000A4172B44DBB203F1804303F51C3301220E
:107AA0001A60BFF36F8FBFF34F8F3E4A3E4B3F4983
:107AB00013EA280838BF904638F8142002F18042B3
:107AC00002F51C3201E00B6813B91368002BFAD0E1
:107AD00009B0BDE8F08F93FAA3F4002C7FF469AFEE
:107AE0004FF0100A4FF0FF33294E0193D046254640
:107AF00096E7284BD3F8C034DA0347D53568B28906
:107B00007168029F06A80023A847D04625469CE737
:107B100077B3204AAD00C2F8A0360423C2F8A416F9
:107B2000B7E705EB8502920002F1804202F51C32B4
:107B3000AD00C2F800372823C2F80417A9E70224D1
:107B40000199B4731A48FFF7D7FB1A4B8DF8174009
:107B500006221B688DF816808DF8142005A898471A
:107B6000DBF80040D9F8003023407FF419AFAFE7CD
:107B700005EB8502920002F1804202F51C32AD0055
:107B8000C2F800360423C2F8041682E745464EE7E1
:107B90008824002000700240300100101C7C02404C
:107BA0007D240020FC850300DC8503000071024079
:107BB00080240020A82500208424002018250020EF
:107BC00010B5184B1B68082B82B002D1164B00224F
:107BD0001A60164B164C93F85E200021032A217080
:107BE00005D01B6D6BB1FFF7CDFE02B010BD114883
:107BF0006FF40011FFF780FB2378002BF3D002B065
:107C000010BD6FF400110B48FFF776FB0A4B0621FD
:107C100005221B688DF80410ADF8062001A89847CE
:107C2000EAE700BF300100101C7C024088240020DD
:107C30007D24002080240020A8250020134B1B68F1
:107C4000082B02D1124B00221A60124B124993F8F2
:107C50008E200020032A087002D0D3F8803003B1B0
:107C6000704700B56FF0807183B00C48FFF744FB9C
:107C70000B4B062108221B688DF80410ADF8062076
:107C800001A8984703B05DF804FB00BF3001001065
:107C90001C7C0240882400207D24002080240020B9
:107CA000A825002000B5184B1B68082B83B002D113
:107CB000164B00221A60164B164993F81E2100201D
:107CC000032A087005D0D3F8103153B103B05DF822
:107CD00004FB6FF480711048FFF70EFB03B05DF8F2
:107CE00004FB6FF480710C48FFF706FB0B4B062179
:107CF00088221B688DF80410ADF8062001A898476B
:107D000003B05DF804FB00BF300100101C7C024092
:107D1000882400207D24002080240020A825002025
:107D20000B4B1B68082B02D10A4B00221A600A4B2E
:107D30000A4993F89E200020032A087003D0D3F844
:107D4000903003B1704706486FF00101FFF7D4BAD5
:107D5000300100101C7C0240882400207D2400207B
:107D6000802400200B4B1B68082B02D10A4B0022F9
:107D70001A600A4B0A4993F80E210020032A087062
:107D800003D0D3F8003103B1704706486FF080018B
:107D9000FFF7B2BA300100101C7C0240882400209A
:107DA0007D240020802400200B4B1B68082B02D16F
:107DB0000A4B00221A600A4B0A4993F8AE200020B1
:107DC000032A087003D0D3F8A03003B170470648E7
:107DD0006FF00201FFF790BA300100101C7C0240E6
:107DE000882400207D240020802400200B4B1B6869
:107DF000082B02D10A4B00221A600A4B0A4993F859
:107E0000BE200020032A087003D0D3F8B03003B19D
:107E1000704706486FF00401FFF76EBA300100109A
:107E20001C7C0240882400207D2400208024002027
:107E30000B4B1B68082B02D10A4B00221A600A4B1D
:107E40000A4993F8CE200020032A087003D0D3F803
:107E5000C03003B1704706486FF00801FFF74CBA15
:107E6000300100101C7C0240882400207D2400206A
:107E7000802400200B4B1B68082B02D10A4B0022E8
:107E80001A600A4B0A4993F8DE200020032A087082
:107E900003D0D3F8D03003B1704706486FF010011B
:107EA000FFF72ABA300100101C7C02408824002011
:107EB0007D240020802400200B4B1B68082B02D15E
:107EC0000A4B00221A600A4B0A4993F8EE20002060
:107ED000032A087003D0D3F8E03003B17047064896
:107EE0006FF02001FFF708BA300100101C7C02403F
:107EF000882400207D240020802400200B4B1B6858
:107F0000082B02D10A4B00221A600A4B0A4993F847
:107F1000FE200020032A087003D0D3F8F03003B10C
:107F2000704706486FF04001FFF7E6B930010010D6
:107F30001C7C0240882400207D2400208024002016
:107F400010B5174B1B68082B82B002D1154B0022CD
:107F50001A60154B154C9A7F0021032A217005D019
:107F60001B696BB1FFF70EFD02B010BD10486FF436
:107F70000031FFF7C1F92378002BF3D002B010BD18
:107F80006FF400310A48FFF7B7F90A4B06210122C6
:107F90001B688DF80410ADF8062001A89847EAE7A1
:107FA000300100101C7C0240882400207D24002029
:107FB00080240020A825002010B5174B1B68082B33
:107FC00082B002D1154B00221A60154B154C93F864
:107FD0006E200021032A217005D01B6E6BB1FFF7C4
:107FE000D1FC02B010BD10486FF48001FFF784F996
:107FF0002378002BF3D002B010BD6FF480010A4843
:10800000FFF77AF9094A062312688DF80430ADF8B3
:10801000063001A89047EBE7300100101C7C0240BD
:10802000882400207D24002080240020A825002012
:1080300010B5184B1B68082B82B002D1164B0022DA
:108040001A60164B164C93F87E200021032A2170EB
:1080500005D01B6F6BB1FFF795FC02B010BD114846
:108060006FF40001FFF748F92378002BF3D002B03A
:1080700010BD6FF400010B48FFF73EF90A4B0621D3
:1080800007221B688DF80410ADF8062001A8984758
:10809000EAE700BF300100101C7C02408824002069
:1080A0007D24002080240020A825002010B5184B36
:1080B0001B68082B82B002D1164B00221A60164BA7
:1080C000164C93F82E200021032A217005D01B6A3C
:1080D0006BB1FFF757FC02B010BD11486FF480215F
:1080E000FFF70AF92378002BF3D002B010BD6FF42C
:1080F00080210B48FFF700F90A4B062102221B687A
:108100008DF80410ADF8062001A89847EAE700BFF3
:10811000300100101C7C0240882400207D240020B7
:1081200080240020A825002010B5184B1B68082BC0
:1081300082B002D1164B00221A60164B164C93F8EF
:108140003E200021032A217005D01B6B6BB1FFF785
:1081500019FC02B010BD11486FF40021FFF7CCF8F4
:108160002378002BF3D002B010BD6FF400210B4830
:10817000FFF7C2F80A4B062103221B688DF8041092
:10818000ADF8062001A89847EAE700BF30010010CB
:108190001C7C0240882400207D24002080240020B4
:1081A000A825002010B5184B1B68082B82B002D1FF
:1081B000164B00221A60164B164C93F84E200021E5
:1081C000032A217005D01B6C6BB1FFF7DBFB02B0FB
:1081D00010BD11486FF48011FFF78EF82378002B43
:1081E000F3D002B010BD6FF480110B48FFF784F894
:1081F0000A4B042206211B688DF80410ADF80620F6
:108200000DEB02009847E9E7300100101C7C0240AA
:10821000882400207D24002080240020A825002020
:108220002DE9F047524BD3F86C44C3F86C4482B04C
:10823000BFF36F8FBFF34F8F4E4E04B34E4DDFF839
:1082400054814E4F94FAA4F101B3B1FA81FCBCF110
:108250000F0F614629DD4A4BD8F80020186801232A
:1082600003FA0CFC103942EA0C021CEA000FC9B2F6
:1082700024EA0C04C8F8002009D0002CE2D133789D
:108280000BB9FFF77FFB02B0BDE8F0871021012397
:1082900006228DF807308DF806102B688DF8042023
:1082A00001A89847002CCDD1E9E70CF00F0E354A14
:1082B000D8F8000032F81E2002F1804202F51C328C
:1082C000012303FA0CF9136840EA090024EA0904BF
:1082D000C8F800004CF0800A7146D3B10023136047
:1082E000BFF36F8FBFF34F8F274ABAF1800F126829
:1082F00029D0082A08BF3B60244B03EB0E12002054
:10830000927B3070032A4FEA0E1E14D053F80E30C1
:108310008BB11B4B1B6819EA0303AED106228DF803
:1083200007308DF806A02B688DF8042001A8984727
:10833000002C87D1A3E7012303FA01F1C9431048B8
:10834000FEF7DAFFE5E7082A08BF3B60104B93F819
:108350009E200021032A317003D0D3F89030002BE7
:10836000D7D16FF001010648FEF7C6FFD1E700BF85
:10837000007002407D240020A82500201C7C0240C3
:1083800080240020DC850300300100101825002027
:1083900088240020842400202DE9F04F704C714E79
:1083A000DFF8C881236896F90010D8F80020DFF8BC
:1083B000D0A196F80090DAF88054DB439BB20029F4
:1083C00085B043EA020324DB09F00F0B0BF1100226
:1083D000012797403B424DD1634F0DF10C0805F04A
:1083E00080056FF0011161483570FEF785FF236845
:1083F00039680022052543F0010340468DF80F201F
:10840000ADF80D208DF80C502360884705B0BDE80D
:10841000F08F09F00F074FF0010A0AFA07FA13EA82
:108420000A0FD9D000230DF10B008DF80B3003F0AB
:10843000EBF819F0080F11D1B9F1800F00F081802D
:108440004B494C4A07F2DA335B000B601368116842
:10845000DBB243F002030B43136013682368D8F8C0
:10846000002062EA030111EA0A0F29D13E4F0DF103
:108470000C0820E04FF000030DF10B008DF80B30DD
:1084800003F0C2F8D8F800303B4937EA030001EBAB
:108490000B124FEA0B1C33D141F80C00216823EA80
:1084A000070321EA0707C8F8003027600DF10C0820
:1084B00003232D4F93739DF80B0003F0CBF88EE749
:1084C0002E498DF80E904FEA071C01EB071022EAA7
:1084D0000A02254FC8F800204FF0000E41F80CE0CA
:1084E000032206210DF10C0843EA0A0382738DF87A
:1084F0000F208DF80C103A68236040469047DAE769
:108500000DF10C084FF00003404601928DF80C303D
:1085100003F07AF82368019A23EA070719F00803A1
:10852000276007D10BF5947B4AF82B30BFF36F8F90
:10853000BFF34F8F9DF80C00019203F08BF8019A66
:10854000B6E70B4B0B4A40F2B4711960136811681F
:10855000DBB243F004030B43136013687EE700BFF4
:1085600084240020AC250020A825002080240020A1
:10857000007802400478024088240020182500205A
:10858000007002402DE9F04182B0044600270DF151
:1085900003008DF8037003F037F8220623D4464910
:1085A000464A0B6804F00F0606F1100001258540CD
:1085B00035EA030C4FEA061E02EB061852D140487A
:1085C00042F80EC0026823EA050322EA05050B60A3
:1085D0000560032388F80E309DF8030003F03AF895
:1085E00002B0BDE8F081230704F00F020FD4802C05
:1085F00053D03448344902F2DA335B0003600B682D
:108600000868DBB243F0020303430B600B682C4D98
:10861000294E29683068012360EA010793401F4210
:10862000DAD02A4F8DF806404FEA021C20EA0300F8
:1086300007EB02123060264C002047F80C000B4379
:108640000620032191738DF8071022688DF804002D
:1086500001A82B6090479DF8030002F0FBFF02B0D9
:10866000BDE8F08101A88DF8047002F0CDFF144A36
:10867000136814F0080423EA0505156008D1154BAA
:1086800006F5947643F82640BFF36F8FBFF34F8F04
:108690009DF8040002F0DEFF9BE70A4B0A4940F216
:1086A000B47018600B680868DBB243F0040303433E
:1086B0000B600B68ABE700BF8024002088240020FB
:1086C000842400200078024004780240182500200D
:1086D000A825002000700240F8B5294BD3F80413F8
:1086E000002944D00024DFF8A8C02746012691FACB
:1086F000A1F3244AB3FA83F085002A443BB31568FA
:1087000006FA00F321EA03012DB11760BFF36F8F62
:10871000BFF34F8F1C430029E9D104F4000634F461
:1087200000040FD0184F012594FAA4F3B3FA83F292
:1087300005FA02F18BB124EA010457F82230984778
:10874000002CF1D1114B1B784BB166B9F8BDDCF8A8
:108750000020002ACBD06246D7E79847E4E7FFF72E
:1087600011F9002EF2D0BDE8F840FFF715BE074B17
:108770001B78002BEAD1BDE8F840FFF703B900BF32
:108780000070024000710240108603007D2400202A
:108790008071024030B4464C2278002A40F0858037
:1087A0004449454B08604FF400754021012020707A
:1087B00083F89E20C3F89020C3F8982083F8AE2059
:1087C000C3F8A020C3F8A82083F8BE20C3F8B020C7
:1087D000C3F8B82083F8CE20C3F8C020C3F8C8205F
:1087E00083F8DE20C3F8D020C3F8D82083F8EE2029
:1087F000C3F8E020C3F8E82083F8FE20C3F8F02097
:10880000C3F8F82083F80E21A3F89C10A3F8AC104D
:10881000A3F8BC10A3F8CC10A3F8DC10A3F8EC105C
:10882000A3F8FC10A3F80C11C3F80021A3F81C5105
:10883000C3F8082183F81E21C3F81021C3F81821BA
:1088400099819A731A609A6099839A771A619A61EA
:10885000998583F82E201A629A62998783F83E20C0
:108860001A639A63A3F84C1083F84E201A649A6432
:10887000A3F85C1083F85E201A659A65A3F86C1063
:1088800083F86E201A669A66A3F87C1083F87E201F
:108890001A679A67A3F88C5083F88E20C3F880205B
:1088A000C3F88820104630BC7047082030BC7047A1
:1088B0007E240020A8250020882400200249034AA5
:1088C00000230B6013707047A82500207E24002031
:1088D00030B5924B4FF4006283B0C3F80024BFF36D
:1088E0006F8FBFF34F8F8E4B1B68082B3AD08B4B8B
:1088F0000122C3F80025BFF36F8FBFF34F8FD3F86A
:1089000000241205FBD54FF40062C3F80024BFF326
:108910006F8FBFF34F8F824B1B68082B74D07F4A39
:10892000804D81487E498024C2F81C45002340F2D6
:10893000FF14C2F830352B6004600A687B4D7C4C14
:108940007C49082A08BF7C4A4FF0020008BF136028
:108950000023734A2B70237008701368082B3CD0D7
:1089600003B030BD754B1B68052B0DF1070419D8FA
:10897000734AD35CB3B9002320468DF8073002F068
:1089800043FE704B1A68002A40F0B8806E4949F2E5
:108990007532C0201A6008601A609DF8070002F066
:1089A00059FEA4E7002320468DF8073002F02CFE84
:1089B000644B1A68002A40F09D80644949F2753280
:1089C00003201A6008601A609DF8070002F042FE5A
:1089D000534B1B68082BCED089E7584B1B68052BDF
:1089E00074D900240DF107008DF8074002F00CFE49
:1089F000544B1A68002A76D0544B1C609DF807002F
:108A000002F028FE03B030BD0DF10704204600251A
:108A10008DF8075002F0F8FD4A4B1A68002A5BD027
:108A2000494B1D609DF8070002F014FE3C4A434B81
:108A300012681B68082A7FF472AF052B03D8404ADE
:108A4000D35C002B36D0002520468DF8075002F06D
:108A5000DBFD3C4B1A68002A58D13C4849F275317D
:108A60001960026019609DF8070002F0F3FD2C4ABE
:108A7000324B12681B68082A7FF451AF052B48D986
:108A8000002320468DF8073002F0BEFD2D4B1A68FA
:108A9000002A37D12D4949F2753203201A60086047
:108AA0001A609DF8070002F0D5FD1D4B1B68082BCE
:108AB0007FF435AF2649274B40F2E370402208602F
:108AC0001A60BFF36F8FBFF34F8F28E71C4AD35C48
:108AD000002B3FF445AF84E71B4849F2753119601C
:108AE000026019609EE7194849F275311960026009
:108AF000196083E7154B03221A6065E7124BC02209
:108B00001A604AE7114B03221A60CAE70F4B1D6037
:108B1000A9E70B4AD35C002BB2D1CBE7007002402F
:108B20003001001080240020842400207D240020B7
:108B3000AC2500207E2400201C7C02403401001063
:108B4000C885030000EC064014EC064014ED064016
:108B500000780240047802402DE9F04F814B8022DA
:108B6000C3F884215B681B0683B01AD47E4B0022B5
:108B7000D3F80413C3F80813C3F80025BFF36F8FAD
:108B8000BFF34F8F794B7A491B68082B04BF794B91
:108B90001A60794B0020012208701A7003B0BDE8FA
:108BA000F08F764D764E2B6832684FEA134A4FEAC3
:108BB0000A4A5AEA020A18D09AFAAAF4002C00F0DB
:108BC0009B80B4FA84FBBBF10F0F4ADDABF11003BD
:108BD000DCB213F0080F4FF0010303FA0BFB2AEA93
:108BE0000B0A1AD0BAF1000FE6D15F4B40F2FF1129
:108BF00000222960C3F80425BFF36F8FBFF34F8FA6
:108C0000584A8021C2F88410BFF34F8FBFF36F8F93
:108C10004FF0FF32C3F80823A8E75A4B6FEA0B095D
:108C200003EB04180DF1030000278DF8037002F028
:108C3000EBFC33683BEA03006FD12968C8F80000F9
:108C400001EA090203EA090030602A60032288F879
:108C50000E209DF8030002F0FDFCBAF1000FABD12D
:108C6000C3E71BF008034ED10DF103004BF0800861
:108C70008DF8033002F0C8FCB8F1800F0BF00F0440
:108C800062D04149414A04F2DA335B000B60136859
:108C90001168DBB243F002030B4313601368D5F88D
:108CA00000C030684FF0010960EA0C0E09FA04F1C7
:108CB0001EEA010F1BD0364B8DF80680220120EAF8
:108CC000010003EB04144CEA010130604FF0000C8A
:108CD000304843F802C003224FF0060CA2738DF80F
:108CE00007208DF804C00268296001A8904709FA9E
:108CF0000BFB2AEA0B0AACE7DFF888806FF48039B7
:108D00004FF4803B8EE7012303FA0BFB2AEA0B0AA0
:108D1000BAF1000F7FF450AF67E701A88DF8047037
:108D200002F072FC2868104B04F5947400EA090004
:108D3000286043F82470BFF36F8FBFF34F8F9DF807
:108D4000040002F087FC81E70F4B104A40F2B47137
:108D5000196013681168DBB243F004030B4313601E
:108D600013689CE700E100E0007002403001001051
:108D70007D2400201C7C02407E24002084240020CE
:108D800080240020882400200078024004780240DB
:108D900018250020A825002030B40D4B0D4D0E4C99
:108DA0000E4A0F4900280CBF184628460025C0234C
:108DB0002570C2F8040381F8273380234B60012318
:108DC000C2F80435BFF36F8FBFF34F8F30BC7047CD
:108DD0000714C0010714E0017C2400200070024049
:108DE00000E100E0764B8022C3F884215B681B061B
:108DF00000D470472DE9F04F724D734E2B683268E6
:108E00004FEA134A4FEA0A4A5AEA020A83B018D0D4
:108E10009AFAAAF4002C00F09D80B4FA84FBBBF10E
:108E20000F0F4CDDABF11003DCB213F0080F4FF065
:108E3000010303FA0BFB2AEA0B0A1CD0BAF1000F5C
:108E4000E6D1624B40F2FF1100222960C3F80425ED
:108E5000BFF36F8FBFF34F8F594A8021C2F8841040
:108E6000BFF34F8FBFF36F8F4FF0FF32C3F808236C
:108E700003B0BDE8F08F564B6FEA0B0903EB041803
:108E80000DF1030000278DF8037002F0BDFB33687D
:108E90003BEA03006FD12968C8F8000001EA090223
:108EA00003EA090030602A60032288F80E209DF84A
:108EB000030002F0CFFBBAF1000FA9D1C1E71BF00C
:108EC00008034ED10DF103004BF080088DF80330FC
:108ED00002F09AFBB8F1800F0BF00F0462D03D490D
:108EE0003D4A04F2DA335B000B6013681168DBB2B1
:108EF00043F002030B4313601368D5F800C03068D9
:108F00004FF0010960EA0C0E09FA04F11EEA010FA4
:108F10001BD0324B8DF80680220120EA010003EBC2
:108F200004144CEA010130604FF0000C2C4843F867
:108F300002C003224FF0060CA2738DF807208DF8B3
:108F400004C00268296001A8904709FA0BFB2AEACD
:108F50000B0AACE7DFF878806FF480394FF4803B80
:108F60008EE7012303FA0BFB2AEA0B0ABAF1000F82
:108F70007FF44EAF65E701A88DF8047002F044FB62
:108F80002868124B04F5947400EA0900286043F83D
:108F90002470BFF36F8FBFF34F8F9DF8040002F072
:108FA00059FB81E70B4B0C4A40F2B471196013680E
:108FB0001168DBB243F004030B43136013689CE7B2
:108FC00000E100E0842400208024002000700240A2
:108FD00088240020007802400478024018250020F0
:108FE000A8250020024B1878003818BF01207047D0
:108FF0007E240020034B1878012894BF0020012014
:10900000704700BF7E240020044B1B78012B83BFD8
:10901000034B5868C0F3C010002070477E24002026
:1090200000E100E02DE9F04F85B000230DF10A00CA
:109030008DF80A3002F0E8FA754B1B7843B9002727
:109040009DF80A0002F006FB384605B0BDE8F08F37
:10905000704EDFF8D881346803F0FF07240CD8F88D
:10906000003024041C4318D0019794FAA4F5002D75
:1090700000F09780B5FA85FABAF10F0F46DDAAF134
:1090800010034FF0010909FA0AF91807DDB224EAC2
:10909000090416D5002CE8D1019F5F4A40F2FF1366
:1090A0003360D2F8003413F40073C8D10121C2F840
:1090B0002C15D2F80014890544BFC2F82C351F4680
:1090C000BEE7564B6FEA090B03EB051A00270DF1BB
:1090D0000B008DF80B7002F097FAD8F8002039EAEF
:1090E00002036FD13168CAF8003002EA0B0201EACC
:1090F0000B01C8F80020316003238AF80E309DF878
:109100000B0002F0A7FA002CAFD1C5E71AF0080354
:109110004ED10DF10B004AF0800B8DF80B3002F0B0
:1091200073FABBF1800F0AF00F0562D03C4A3D494B
:1091300005F2DA335B0013600B680A68DBB243F0B8
:10914000020313430B600B683168D8F800204FF01E
:10915000010962EA010009FA05F318421CD03248FD
:10916000DFF8CCE08DF80EB022EA03024FEA051CCE
:10917000C8F8002000EB0515002240F80C200B4336
:1091800003220621AA738DF80F208DF80C10DEF84B
:109190000020336003A8904709FA0AF924EA090479
:1091A000ADE7DFF878A06FF4803B4FF480398DE7AE
:1091B0004FF0010909FA0AF924EA0904002C7FF4A6
:1091C00054AF69E703A88DF80C7002F01DFA3368FC
:1091D00003EA0B03336005F594750F4B43F82570D4
:1091E000BFF36F8FBFF34F8F9DF80C0002F032FA80
:1091F00082E70B4B0B4940F2B4721A600B680A68A5
:10920000DBB243F0040313430B600B689CE700BF21
:109210007C24002084240020007002408824002048
:1092200000780240047802401825002080240020A5
:10923000A825002030B583B000250DF107008DF87A
:10924000075002F0E1F9164B1B7803F0FF044BB115
:10925000144AD2F82C3563B1134BC2F82C551B6855
:10926000082B0ED09DF8070002F0F4F9204603B059
:1092700030BD9DF807001C4602F0ECF9204603B013
:1092800030BD0A4B1A683AB9094949F27532C02013
:109290001A6008601A60E5E7054BC0221A60E1E732
:1092A0007C240020007002403001001000EC0640D9
:1092B00014EC0640024B034AC3F80823704700BF72
:1092C0000070024004148001024B034AC3F80423D7
:1092D000704700BF0070024004148001014B00225F
:1092E0001A7070477C240020064B10F0800FA3F109
:1092F000900200F00F0008BF134603EB001398899B
:10930000704700BF18250020064A010600F00F0331
:109310004CBFD2F81005D2F81405D84000F0010077
:10932000704700BF0070024070B545B2002D82B09A
:109330004BDB314B314A00F00F04195D012303FA76
:1093400001F1C2F80413D2F81415E140C9073AD468
:10935000D2F81415A3400B43C2F81435BFF36F8F36
:10936000BFF34F8F7CB3002D2DDB10F008062AD100
:109370000DF106008DF8066002F046F90DF10700C8
:109380008DF8076002F040F91D491C480A6804F195
:1093900010050123AB4004F5947422EA03020A602D
:1093A000DD4340F82460BFF36F8FBFF34F8F9DF80C
:1093B000070002F04FF9134A9DF8060013682B408E
:1093C000136002F047F902B070BD0F4B0B4A00F07A
:1093D0000F04195D012303FA01F1C2F80413D2F856
:1093E0001015E140CE07EED4D2F81015A3400B4380
:1093F000C2F81035B2E700BFF085030000700240EC
:109400008424002080240020D08503002DE9F0432F
:1094100083B047B24FF0000904460DF103008DF808
:10942000039002F0F1F84F453EDBDFF884C1594B61
:10943000DCF800E004F00F0505F11002012696406B
:1094400036EA0E014FEA051003EB051878D1524AAF
:10945000195013682EEA060123EA0606CCF800101C
:109460001660032388F80E309DF8030002F0F2F82E
:109470004A490122D1F81435AA4023EA0203C1F86F
:109480001435BFF36F8FBFF34F8F454B454A4349A8
:1094900012EA270238BF1A460123525D9340C1F8F1
:1094A000083303B0BDE8F08304F00F0C23076546D2
:1094B0000FD4802C5FD03C493C4A0CF2DA335B007D
:1094C0000B6013681168DBB243F002030B431360B7
:1094D0001368DFF8C4E03648DEF800200168012395
:1094E00061EA020603FA0CF31E4227D0314E8DF8D2
:1094F00006404FEA0C1821EA03012F4C016006EBED
:109500000C1C002146F80810062003211A438CF891
:109510000E108DF807108DF804002168CEF8002099
:1095200001A8DC4388479DF8030002F093F81B4A2A
:10953000D2F810352340C2F81035A2E7DC43F2E739
:1095400001A88DF8049002F05FF8134A136814F034
:10955000080423EA0606166008D1104B05F594723C
:1095600043F82240BFF36F8FBFF34F8F9DF8040085
:1095700002F070F875E70C4B0C4A40F2B4711960B8
:1095800013681168DBB243F004030B4313601368E4
:109590009FE700BF88240020842400200070024040
:1095A000F0850300D0850300007802400478024073
:1095B0008024002018250020A82500202DE9F04156
:1095C0004FFA80F882B0B8F1000F00F00F054FF0AD
:1095D000000304460DF10700B4BF1F4610270E46D6
:1095E0008DF8073002F010F82DB92E4B1B78A342EE
:1095F00001D010242EE02C4BDFF8D4C01C68DCF81E
:109600000030E4432F440122A4B202FA07F71C43BE
:109610003C4027D1B8F1000F26DB244A2449DFF86B
:10962000B480280105EB450E42F8008001EB8E0E58
:1096300002EB051896E807001E4D1F438026002305
:109640008EE80700C8E901E3CCF8007088F80E3016
:10965000C5F804619DF8070001F0FCFF204602B048
:10966000BDE8F0811124F5E732681349134802F090
:10967000604205EB450EB2F1005F01EB051800EB0F
:109680008E0E4FEA051506D0B268D20754BF0C4AB9
:109690000C4A4A51CEE7B268D00754BF0A4A0B4A77
:1096A0004A51C7E7AC2500208424002088240020EC
:1096B0000439002000E100E018250020983800203F
:1096C000B9760200F1760200E97502001176020017
:1096D00080240020B17502002DE9F04147B282B02C
:1096E000002F00F00F054FF0000304460DF10700B6
:1096F000B4BF98464FF010080E468DF8073001F0C1
:1097000083FF2DB91B4B1B78A34201D0102426E008
:10971000194B1A491C680A68E443A8440123A4B2FF
:1097200003FA08F314431C4021D11548DFF854E034
:10973000A0F1900C10EA270738BF674607EB051C1D
:109740002D01CCF808403068785113430B607268E3
:10975000CCF8042080238CF80E40CEF804319DF81C
:10976000070001F077FF204602B0BDE8F081112428
:10977000F5E700BFAC2500208424002080240020D1
:109780001825002000E100E000487047B0250020C7
:10979000044B40F48070C3F81805BFF36F8FBFF31C
:1097A0004F8F7047007002402DE9F041030682B0F0
:1097B00004460FD410F008070CD100F00F05AD00DF
:1097C00005F1804505F51C3500F00F08D5F8446417
:1097D000012E09D0114BC3F81845BFF36F8FBFF3AB
:1097E0004F8F02B0BDE8F0810DF107008DF80770D2
:1097F00001F00AFF0A4AC5F8A074136808F11008BE
:1098000006FA08F623EA06061660BFF36F8FBFF369
:109810004F8F9DF8070001F01DFFDBE7007002404D
:1098200084240020010718D4020600F00F0309D495
:109830000B4A9B001A445068A0F10100B0FA80F076
:1098400040097047074A03F5847352F82300A0F1DA
:109850000100B0FA80F0400970470020704700BF57
:109860004074024000700240064BC3F80C05BFF381
:109870004F8F40F48070C3F80C05BFF36F8FBFF3B8
:109880004F8F70470070024010B508220021044637
:109890000DF04AFD0E4BD3F880242270D3F88424B7
:1098A0006270D3F88824D3F88C1442EA01226280D3
:1098B000D3F89024D3F8941442EA0122A280D3F87A
:1098C0009824D3F89C3442EA0323E38010BD00BF00
:1098D00000700240034B01221A60BFF36F8FBFF389
:1098E0004F8F70474C700240034B01221A60BFF348
:1098F0006F8FBFF34F8F704750700240034B0122B0
:109900001A60BFF36F8FBFF34F8F704754700240E0
:10991000014B1878704700BFAC250020014B186838
:10992000704700BFF0250020014B1868704700BF4A
:10993000F8250020104A1378DBB910B403780F49DA
:109940004FF08044C3F34003C4F88035037803F03C
:109950000103C4F878350B68DB0704D4C02381F811
:10996000003301230B600123137000205DF8044BCA
:1099700070478520704700BF7039002000E100E08B
:10998000014B02681A607047F82500204FF08043B1
:109990004FF46072C3F80423704700BF4FF0804358
:1099A0004FF46072C3F80823704700BF014B0022D8
:1099B0001A607047F825002010B54FF0804386B03C
:1099C000D3F80443620705D5D3F8082103F584735F
:1099D000002A4ED1A30603D52A4B1A68002A3FD18C
:1099E000600603D5284B1A68002A2FD1210602D51C
:1099F000264B1A680ABBE20502D5254B1A6892B9B4
:109A0000A3050ED5234B1A685AB100221A601A68B2
:109A1000214B0592059A1B68022006B0BDE8104054
:109A2000184706B010BD00221A601B4A1B68049339
:109A300001201368049A9847E2E700201860164A4C
:109A40001B6803931368039A9847D4E700221A60AF
:109A5000124A1B68029301201368029A9847C5E7CF
:109A6000002018600D4A1B6801931368019A9847FB
:109A7000B6E700221A600A4A1B6800931368009A2E
:109A80009847A7E714010040180100401C0100405E
:109A90002001004024010040F8250020F42500208A
:109AA000F025002008B5FFF787FFBDE8084000F06B
:109AB000DDBC00BFF0B5264C94F86A3083B0002BB3
:109AC00042D14FF6FF70FF255A09012A0CBF02460A
:109AD0004FF0FF3203F01F01CA40D20748BFE2181F
:109AE00003F1010348BF82F83050302BECD14FF026
:109AF000FF334FF0FF364FF0FF37062200211548A5
:109B00002366C4E90233C4E90433C4E90633C4E973
:109B10000833C4E90A33C4E900670DF005FC0E4BB5
:109B2000C02283F8062340221A600C4B0C4A002006
:109B300018601B68019301214FF00043019D84F8D8
:109B40006A10C2F8043300E0082003B0F0BD00BF83
:109B5000002600206426002000E100E07C61004037
:109B600000600040034B93F86A00003818BF0120E2
:109B7000704700BF00260020F0B4754B1D1895F902
:109B80003040002C61DA8C78A707C4F3400C53D422
:109B90001C6A013400F0D5805C6A013400F0CA8090
:109BA0000C260A2453F82450013552D0651CB542C6
:109BB0003FD253F82570013700F0B480A51CB542A0
:109BC00037D253F82570013700F0AC80E71CB7425C
:109BD0002FD253F8275001353AD0271DB74228D24B
:109BE00053F82750013533D0671DB74221D253F8BF
:109BF000275001352CD0A71DB7421AD253F8275051
:109C0000013525D0E71DB74213D253F8275001354F
:109C10001ED004F10807B7420BD253F82750013584
:109C200016D00934B44204D2DC6A013408BF0B24D4
:109C30000FD00420F0BC70471C68013474D05C68FD
:109C400001346DD008260224ACE70820F0BC704730
:109C50003C461E1865B243F8242086F83050BCF10B
:109C6000000F02D11C4484F858008A7854071AD493
:109C7000D60744D41F284C7887BF364E00F01F0209
:109C800002464FF0A04602F5E072A40046F82240DA
:109C9000314EC40800F0070C375D012202FA0CF2C5
:109CA0003A4332558A7812F002021CD0AB0003F11D
:109CB000804303F5C0430978D3F8104524F44F34AA
:109CC00024F44074C3F8104502020904D3F81005C7
:109CD00001F4403102F47C520A430243C3F81025D8
:109CE0000020F0BC7047083D2B44087893F86010C2
:109CF00041EA801183F860101046F0BC70471F28BD
:109D000087BF144A00F01F0404464FF0A04202EB44
:109D10008402D2F8004724F00204C2F80047B7E7F3
:109D2000012496E72C4694E7002485F830401A6019
:109D300025469AE7092685F830605A62344635464A
:109D400090E7082685F830601A623446354689E780
:109D500000260020000300506426002070B4324C1E
:109D6000251883B095F93030072B22DD234493F872
:109D700058309B09032B46D0012B0CBF4FF4003207
:109D80004FF440321F288ABF284B4FF0A04300F009
:109D90001F0003EB8000D0F8003723F44033C0F8F5
:109DA0000037D0F800371A43C0F8002703B070BC62
:109DB0007047DAB2072AF9D8980000F1804000F520
:109DC000C04003F140029200D0F8106592B202F157
:109DD000804202F5C04246F00106C0F8106500203E
:109DE000106012680192019A0029DFD095F93020A5
:109DF00054F82220002AD9D00D49012202FA03F397
:109E0000C1F80433D2E71F288ABF084A4FF0A042A6
:109E100000F01F03D2F8102598BF0346DA4002F085
:109E2000010202321204ADE70026002000030050B8
:109E3000006000401F288ABF054B4FF0A04300F090
:109E40001F00D3F8103523FA00F000F0010070472E
:109E5000000300502DE9F047002384B0CDE9023320
:109E6000D54A1168012900F040821E46D34B1A687A
:109E7000012A00F02C82D24B1A68012A00F01982C4
:109E8000D04B1A68012A00F00682CF4B1A68012ACB
:109E900000F0F381CD4B1A68012A00F0E081CC4B31
:109EA0001A68012A00F0CD81CA4B1A68012A00F015
:109EB000A181C94B1A68012A20D0E6B1C74F0024FE
:109EC0000125A30003F18043354203F5C0434FEA67
:109ED00045050BD0D3F8100557F82420D3F81015FA
:109EE000C0F30520C1F3014102B190470134082CB1
:109EF000E7D1002E17DB04B0BDE8F08700221A601E
:109F00001B6801934FF0A042019BD2F82015B44B7F
:109F10000291C2F82015D3F820250392C3F820251A
:109F2000002E40F08B81AD4CAD4E01254FF0A04787
:109F300094F96000431C46D0C0F3C20204AB1A443B
:109F400000F0070312F8082C05FA03F31A42C1B215
:109F500000F03F0037D01F2800F2258102464FF065
:109F6000A04909EB820304EB000ED3F800C7D3F835
:109F7000008728F44038C3F80087CCF3014C9EF9E1
:109F80003080D3F800E754F82880BCF1020F0CBFF2
:109F90004FF4403A4FF4003A05FA02F24EEA0A0E44
:109FA000C3F800E7C9F82025B8F1000F0BD08909E4
:109FB000032900F0B381BCF1020F00F0BE81BCF1B7
:109FC000030F00F0A88194F96100411C46D0C0F352
:109FD000C20204AB1A4400F0070312F8082C05FA79
:109FE00003F31A42C1B200F03F0037D01F2800F23D
:109FF000DE8002464FF0A04909EB820304EB000E1D
:10A00000D3F800C7D3F8008728F44038C3F8008796
:10A01000CCF3014C9EF93080D3F800E754F8288047
:10A02000BCF1020F0CBF4FF4403A4FF4003A05FA6E
:10A0300002F24EEA0A0EC3F800E7C9F82025B8F18B
:10A04000000F0BD08909032900F06D81BCF1020FCC
:10A0500000F06B81BCF1030F00F0628194F96200A3
:10A06000421C46D0C0F3C20204AB1A4400F00703FE
:10A0700012F8082C05FA03F31A42C1B200F03F00AF
:10A0800037D01F2800F2AE8002464FF0A04909EBFE
:10A09000820304EB000ED3F800C7D3F800879EF9C3
:10A0A00030E028F44038C3F80087CCF3014CD3F8F3
:10A0B00000A754F82E80BCF1020F0CBF4FF4403EB5
:10A0C0004FF4003E05FA02F24EEA0A0EC3F800E72A
:10A0D000C9F82025B8F1000F0BD08909032900F039
:10A0E0001381BCF1020F00F02481BCF1030F00F0DA
:10A0F000088194F96300431C45D0C0F3C20204AB4D
:10A100001A4400F0070312F8082C05FA03F31A4268
:10A11000C1B200F03F0036D01F2867D802464FF08A
:10A12000A04909EB820304EB000ED3F800C7D3F873
:10A1300000879EF930E028F44038C3F80087CCF35C
:10A14000014CD3F800A754F82E80BCF1020F0CBFCD
:10A150004FF4403E4FF4003E05FA02F24EEA0A0E7A
:10A16000C3F800E7C9F82025B8F1000F0BD0890922
:10A17000032900F0CE80BCF1020F00F0E280BCF1B8
:10A18000030F00F0C380D7F820250292C7F82025DE
:10A19000D6F820350393C6F8203513437FF4C8AEB4
:10A1A00004B0BDE8F08701F01F02B146D9E601F026
:10A1B0001F02B14620E700BF00610040046100407B
:10A1C000086100400C6100401061004014610040D3
:10A1D000186100401C6100407C61004000260020A6
:10A1E0000003005001F01F02B14650E701F01F02CA
:10A1F000B14696E7554AD2F8042312067FF559AEC8
:10A2000000221A6019680091196E0098012903F163
:10A21000600346F080067FF450AE1A601B6801931D
:10A220004FF0A042019BD2F82015494B0291C2F891
:10A230002015D3F820250392C3F8202546F00046C8
:10A240003CE6424AD2F8042351067FF52DAE0022A7
:10A250001A601B680093009B46F0400624E63B4AC8
:10A26000D2F8042390067FF51AAE00221A601B680C
:10A270000093009B46F0200611E6344AD2F80423EE
:10A28000D4067FF507AE00221A601B680093009B7E
:10A2900046F01006FEE52D4AD2F8042315077FF597
:10A2A000F4AD00221A601B680093009B46F008067C
:10A2B000EBE5264AD2F8042357077FF5E1AD0022EB
:10A2C0001A601B680093009B46F00406D8E51F4AFD
:10A2D000D2F8042392077FF5CEAD00221A601B68E6
:10A2E0000093009B46F00206C5E51849D1F80463C7
:10A2F00016F001063FF4BAAD136013680093009B9B
:10A30000B4E502297FF4F5AEC047F2E602297FF4F6
:10A310003AAFC04737E702297FF455AEC04752E64F
:10A3200002297FF49BAEC04798E601297FF496AEE0
:10A33000F9E701297FF4DDAEE6E701297FF443AEBA
:10A34000ECE701297FF41FAFE3E700BF00600040A6
:10A3500000030050044A137923B901211060918051
:10A3600018467047852070476C260020084B1A68F5
:10A37000D20704D4C02283F8002301221A60054AC0
:10A380004FF080410123C1F818351370704700BFAA
:10A3900000E100E07139002010B4094B094A0021A6
:10A3A000196083B01B680193019C4FF0804102202B
:10A3B0000123C1F80403136003B05DF8044B704738
:10A3C000040100400800004010B40B4B0B494FF053
:10A3D000804200200224C2F8084383B018601B6842
:10A3E0000193012301980B60D2F81834DB03FBD4EE
:10A3F00003B05DF8044B7047040100400C000040BE
:10A40000074B00221A6082B01B68019301994FF03C
:10A4100080430122C3F804231A6002B0704700BFD2
:10A420000001004010B40E490E484FF08042012355
:10A430000024C2F8083383B00C60096801910199C7
:10A440000360D2F80C3403F00113B3F1011FF8D00C
:10A45000054B00225A7103B05DF8044B704700BFF2
:10A4600000010040040000406C26002010B5174B8E
:10A470001A6882B062B10021154A19601B685079D0
:10A4800000934FF080410123009CC1F8083398B13C
:10A49000104B1A68BAB100221A601B6801934FF082
:10A4A000804202210A4B0198C2F808131B68012060
:10A4B00002B0BDE810401847116853718847054B3A
:10A4C0001A68002AE7D102B010BD00BF00010040A9
:10A4D0006C2600200401004036DF70474DDF7047D6
:10A4E0004EDF70474FDF704750DF7047012810B5CF
:10A4F0000BD00446FFF718FA034628B10A2C13D0F4
:10A500000B2C0DD0092C07D010BDFFF707FA8047A0
:10A51000BDE81040FFF708BABDE810400220184718
:10A52000BDE8104001201847BDE810400020184742
:10A5300010B5012882B004461AD0032816D11E4B4C
:10A54000C02283F8002301221A60FFF7E7F920B147
:10A550004FF080430422C3F80423FFF7E5F928B144
:10A560004FF080434FF46072C3F8042302B010BD73
:10A5700000230DF107008DF8073001F045F8FFF7D3
:10A58000CDF910B12046FFF7A7FF9DF8070001F0B5
:10A5900061F8FFF7C9F90028E8D00120FFF7A0FF14
:10A5A0000028E3D10120FFF799FF0028DED1012028
:10A5B000FFF798FFDAE700BF00E100E038B50A4D89
:10A5C0002B786BB9044601F003F858B90748002C02
:10A5D00018BF2046FFF7AEF908B901232B7038BD2C
:10A5E000852038BD082038BD7426002094860300DD
:10A5F00030B583B00446002501A88DF8045001F061
:10A6000003F800F0E5FFF0B12846FFF769FF0028E6
:10A6100037D09DF8040001F01DF8FFF7C7F9204678
:10A62000FFF7AEF900F0D4FF044638B10120FFF780
:10A6300057FF044650B1204603B030BDFFF7A6F9DE
:10A64000204603B030BDFFF7A9F9E2E70120FFF78C
:10A6500045FF04460028EED10120FFF743FF0446E2
:10A660000028E8D101A8FFF73FFF04460028E2D107
:10A67000019BDB07DFD5FFF757F9034620469847D4
:10A68000D9E7FFF72BFF0028C3D1FFF72BFFC0E767
:10A6900042DF704743DF704710B568B90E4CA368BE
:10A6A000012262703BB1D3E900230020A2609847E9
:10A6B000A368002BF7D110BD0128FCD1064C2369FB
:10A6C000A070002BF7D0D3E9002301202261984726
:10A6D0002369002BF7D110BD7826002070B910B582
:10A6E000074CA368012262703BB1D3E9002300202C
:10A6F000A2609847A368002BF7D110BD704700BF38
:10A700007826002030B5012883B004D0032821D05A
:10A71000B0B103B030BD294C00230DF107008DF816
:10A72000073000F071FF23786BB3E3689DF80700F2
:10A7300001330122E360A27000F08CFF03B030BD52
:10A740001F4B0122C3F88020BFF34F8FBFF36F8FE1
:10A7500003B030BD194CFFF709FE00230DF10700CF
:10A760008DF8073000F050FFE368013BE360E368D9
:10A770001BB9144BD3F80054C5B19DF8070000F085
:10A7800069FF03B030BD10486360A3602361E360DC
:10A79000FFF7E0FD00F01CFF60B10A4A01232370BF
:10A7A000D2F80024002AC0D0A370BEE7FFF70CFE49
:10A7B000A570E2E7FFF7DAFDEFE700BF782600209B
:10A7C00000E100E00000014099A60200014B18786A
:10A7D000704700BF7826002038B50E4C237843B16F
:10A7E00085250D4BD3F800340BB10123A370284607
:10A7F00038BD0A486360A3602361E360FFF7AAFDE8
:10A80000054600F0E5FE10B101232370E9E7FFF7EC
:10A81000ADFDF9E7782600200000014099A602006E
:10A8200030B51A4DAB7883B004469BB110B1436884
:10A830000120984700230DF107008DF8073000F044
:10A84000E3FEEB689DF807000133EB6000F002FFC8
:10A8500003B030BD03F0FF020DF107008DF80720B3
:10A8600000F0D2FE64B12A6942B1944208D0134686
:10A8700001E09C4204D01B68002BFAD122602C61BD
:10A88000EB68002BDDD1FFF787FDDAE778260020A3
:10A8900008B500F09DFE28B94FF08043D3F81804A6
:10A8A000C0F3004008BD00BF30B51D4D6B7883B0CC
:10A8B00004469BB110B143680020984700230DF176
:10A8C00007008DF8073000F09FFE6B689DF80700C9
:10A8D00001336B6000F0BEFE03B030BD03F0FF0239
:10A8E0000DF107008DF8072000F08EFE64B1AA6814
:10A8F00042B1944208D0134601E09C4204D01B6848
:10A90000002BFAD12260AC606B68002BDDD100F027
:10A910005FFE10B9FFF774FDD7E7FFF7B9FED4E784
:10A920007826002070B5154C82B000230DF1070089
:10A930008DF8073000F068FE6368013B636065686E
:10A940002DB19DF8070000F085FE02B070BD00F04B
:10A950003FFE064640B9FFF765FD9DF807006670AB
:10A9600000F078FE02B070BDFFF794FE9DF807007E
:10A97000657000F06FFE02B070BD00BF7826002049
:10A980002DE9F04F164683B0B142DDE90C920F4637
:10A9900005469A46C0F095800B464FF00108B3FB80
:10A9A000F6F39E4208F10108F9D9D04538BFD046E8
:10A9B00012F00103019302D1B9F1000F5ED1AA6830
:10A9C000012403E00AF1FF3A06FB04F4BAF1010F97
:10A9D000F8D8B7FBF4F39E42F6D9DFF8ECA007E015
:10A9E000B442B4FBF6F31AD3AA681C46B7FBF3F3E0
:10A9F0001AF803B0BBF10A0F04FB137728D02B68B9
:10AA0000511CA96003F802B0D5E901329A42E7D39C
:10AA1000284600F041FBB4FBF6F3B442E4D2019BBC
:10AA20009BB1B9F1000F10D02024C84509F1FF39BE
:10AA30000BD2AB682A68591CA960D454D5E90132FD
:10AA40009A4214D2B9F1000FEFD103B0BDE8F08FF4
:10AA5000511C2B68A9604FF00D019954D5E90132C2
:10AA60009A42CCD3284600F017FBAA68C7E72846CD
:10AA700000F012FBB9F1000FD7D1E6E793071AD423
:10AA80002024AA68C84502F1010199D22B68A96067
:10AA90009C54D5E901329A4209F1FF3903D2B9F148
:10AAA000000FEFD18CE7284600F0F6FAAA68B9F15A
:10AAB000000FE7D184E7BAF1000F0CBF3024202447
:10AAC000DFE74FF0010870E7A0860300002900F0DF
:10AAD00054822DE9F04FDFF8B8950C7885B0064622
:10AAE00090460D464FF00D0A10E00A2CB36800F0B6
:10AAF000AD803268591CB160D454D6E901329A4213
:10AB000080F0A0802C78002C00F087800135002C8C
:10AB100000F08380252CE8D1294600270D4611F846
:10AB2000012B2D2A00F08880302A00F088802B2A03
:10AB30007AD02A2A00F09980A2F13003092B4FF035
:10AB400000040BD804EB840402EB440415F8012F35
:10AB5000A2F13003092BA4F13004F3D92E2A00F01E
:10AB60009080002301E015F8012F02F0FB01682915
:10AB7000F9D0252A00F07781583AD1B2202947D858
:10AB8000202A45D8DFE812F0350144004400440093
:10AB90004400440044004400440044004400430195
:10ABA00013014400440044004400130144004400E5
:10ABB0004400440044004400D20044004400A20089
:10ABC00044009400440044003501012098420246AC
:10ABD00038BF1A460292002C40F05081B80740F16D
:10ABE0006E81002B40F04E821C46BBF1000FC0F27C
:10ABF0000A827A0700F11A8207F00302022A00F0A3
:10AC0000EA81CDE9004759460A223046FFF7B8FEEF
:10AC100001352C78002C7FF479AF337B002B40F08A
:10AC20001C8105B0BDE8F08F0D4611F8012B2D2ACF
:10AC300047F004077FF478AF47F001076EE747F06D
:10AC400002076BE7304600F027FA5BE73268591CD1
:10AC5000B16002F803A0D6E901239342FFF449AFA3
:10AC6000304600F019FAB36843E7D8F800301A1DEF
:10AC7000C8F800206A781C682E2A05F101057FF4C7
:10AC800070AF6A78A2F13003092B05F101054FF08E
:10AC900000033FF66AAF03EB830302EB430315F8AF
:10ACA000012FA2F130010929A3F13003F3D95CE7A8
:10ACB000D8F80020111DC8F8001011683046CDE901
:10ACC00000470A22FFF75CFE0135A2E7D8F8003002
:10ACD0001A1DC8F8002017F00107D3F800B040F0A3
:10ACE000F080BBF1000F03D058460CF009FC07467A
:10ACF000BC4240F24381002C00F04081202205E05C
:10AD0000BC4200F03B81002C00F03881B168336810
:10AD1000481CB0605A54D6E90130984204F1FF341F
:10AD2000EED3304600F0B8F92022E9E7D8F8002049
:10AD3000131DC8F80030B36831681768581C3022FA
:10AD4000B060CA54D6E90123934280F0EF803268A4
:10AD5000581C7821B060D154D6E901329A4280F073
:10AD6000E0800F2F03D93B461B090F2BFCD84FF077
:10AD7000805406E00F2C4FEA14137FF649AFB268F7
:10AD80001C46B7FBF4F319F803B0BBF10A0F04FB40
:10AD9000137754D03368511CB16003F802B0D6E980
:10ADA00001329A42E6D3304600F076F9E2E7D8F86D
:10ADB0000020111DC8F80010D2F800B08BEAEB7229
:10ADC000A2EBEB72092A7FF700AFDFF8C8C20120BF
:10ADD00011466329ACFB02E200F101004FEAD20206
:10ADE000F6DC9842024638BF1A460292002C45D142
:10ADF000F4E6D8F80020111DC8F80010116830469C
:10AE0000CDE900471022FFF7BBFD013501E7D8F877
:10AE100000301A1DC8F800201C78B3680A2C00F016
:10AE200011813268591CB160D454D6E901329A427A
:10AE3000FFF4EEAE304600F02FF90135E9E6336855
:10AE4000511CB16003F802A0D6E901329A42A1D3A5
:10AE5000304600F021F9B2689CE7304605B0BDE805
:10AE6000F04F00F019B9B3683168581CB060CA548B
:10AE7000D6E901329A42DDD20135CAE6BBF1000FB4
:10AE800059DB7A0757D4B80702D5002B3FF4ADAE93
:10AE9000F9073FF5AAAE94B120220299A142BFF46E
:10AEA000A4AEB168481CB06030684254D6E90101D4
:10AEB000814204F1FF3480F0D480002CEDD10024D5
:10AEC00093E69BF80030002B00F0E080B0685F460E
:10AED000CBF101020A2B02EB070B3CD0411CB16005
:10AEE00031680B54D6E90130984226D217F8013F59
:10AEF000002BEFD15C457FF68BAE202702E05C454E
:10AF00003FF486AEB2683368511CB1609F54D6E9F5
:10AF100001329A4204F1FF34F1D3304600F0BCF81C
:10AF2000EDE7304600F0B8F8B2681AE7304600F0B6
:10AF3000B3F8B3680BE7013CA5E73046029200F096
:10AF4000ABF817F8013F002BD4D0029AB0680A2B57
:10AF500002EB070BC2D1411CB160316801F800A0BF
:10AF6000D6E901108842B9D33046CDE9023200F06B
:10AF700093F8DDE90232B068B0E770479BF8004013
:10AF8000002C3FF445AE0A2CB0680ED03368421C4A
:10AF9000B2601C54D6E90130984214D21BF8014F1C
:10AFA000002C3FF435AE0A2CF0D13368421CB2605D
:10AFB00003F800A0D6E901309842E7D3304600F00C
:10AFC0006BF8B068E2E7304600F066F81BF8014F16
:10AFD000002CD8D11CE6002B7FF413AE8CB13022AC
:10AFE0000299A142BFF40DAEB168481CB060306850
:10AFF0004254D6E90101814204F1FF343BD2002CD6
:10B00000EED10024FDE5B1684A1CB26032682D2003
:10B010005054D6E901219142CBF1000BFFF4ECAD85
:10B020003046039300F038F8039BE5E5B1684A1C0D
:10B03000B26032682B205054D6E901219142FFF4CE
:10B04000DBADEDE73268591CB16002F803A0D6E928
:10B0500001239342FFF4E5AE304600F01DF8B368DB
:10B06000DFE63046039300F017F8039B2022002C04
:10B070007FF413AF23E73046039300F00DF8039BF2
:10B080003022BCE7F9073FF5B0AD18E79B4631E742
:10B09000A0860300CDCCCCCC826842B110B504466A
:10B0A00043690168006998470023A36010BD704799
:10B0B0000EB400B582B0039921B104AB01AA01938B
:10B0C000FFF704FD02B05DF804EB03B0704700BF6A
:10B0D0004BDF704710B5114C84B001A8FFF7F8FFA3
:10B0E000A8B9214602A806F0E5F8039B002BF4D08E
:10B0F000D3E900210198904702A806F0E5F8039BE8
:10B10000002BF5D101A8FFF7E3FF0028E9D00528BF
:10B1100001D000F0EFFA04B010BD00BFBC86030000
:10B1200060DF704769DF704761DF7047144B1B7841
:10B130002BB330B5134D91B034240DF1020103A8A7
:10B14000ADF80240FFF7F0FF88B9294601A806F0E4
:10B15000B1F8029B002BF0D0D3E9002103A890475F
:10B1600001A806F0B1F8029B002BF5D1E5E7052810
:10B1700001D111B030BD00F0BDFA11B030BD704743
:10B180008C2600200C890300002900F0A78070B5F0
:10B19000544B0B6084B00C4605460C22002101A8DC
:10B1A0000CF0C2F80126062322688DF8045001A98C
:10B1B00020208DF80660ADF80830FFF7B3FF0028B7
:10B1C00043D10C22002101A80CF0AEF8012100238C
:10B1D0008DF805102268ADF8063001A94020FFF770
:10B1E000A1FF00286CD10C22002101A80CF09CF8D2
:10B1F0000A2322688DF8043001A90120FFF792FF8D
:10B2000000284FD10C22002101A80CF08DF84FF43A
:10B21000B0632268019301A9A120FFF783FF98BBC7
:10B220000C22002101A80CF07FF89DF80430226860
:10B2300043F0010301A9A0208DF80430FFF772FF4D
:10B24000034680B9184604B070BD03F0E3FB264BFB
:10B250002649024626481B1ADB081B0443EA06005F
:10B2600004F0D4F8ADE703F0D5FB1F4B21490246AB
:10B270001F481B1ADB081B0443F0010004F0C6F84A
:10B280000023184604B070BD03F0C4FB164B1A49E6
:10B29000024617481B1ADB081B0443F0010004F0A8
:10B2A000B5F8BDE703F0B6FB0F4B14490246104852
:10B2B0001B1ADB081B0443F0010004F0A7F8A1E708
:10B2C00003F0A8FB084B0E49024609481B1ADB088D
:10B2D0001B0443F0010004F099F884E70E2318469C
:10B2E000704700BF0023002064A60300C886030047
:10B2F000E4A50300FC870300A88703005C87030024
:10B300001087030070B5044682B00668FFF708FF97
:10B310002368B342054606D82DBB1B4B01222846A5
:10B320001A7002B070BD194B19481A49C01AC008EA
:10B33000000440F00200019003F0A2FF019823688E
:10B340001549324604F032F94FF080532268D3F8A1
:10B350000C31124901989B0203F100539A1A04F030
:10B3600055F8002DD9D0284603F054FB084B0C4962
:10B37000024606481B1ADB081B0443F0010004F0D8
:10B3800045F8284602B070BD8C260020E4A50300D5
:10B3900064A603005088030080880300B48803007B
:10B3A000E088030010DF704711DF704770B53C4D37
:10B3B0002B7884B0002B66D13A4E3B49012302A87A
:10B3C000337005F077FF039B23B90EE005F07CFF97
:10B3D000039B53B1D3E9002100209047044602A803
:10B3E000002CF3D1204604B070BD304902A805F00E
:10B3F00061FF039B4BB1D3E900210020904702A8D5
:10B4000005F062FF039B002BF5D1294A0023126847
:10B410008DF8083002A8019200F0F6F8254901A83D
:10B42000FFF7C0FFB0FA80F304465B099DF80800FF
:10B430002B7000F00FF9002CD4D11F4B1F491C704A
:10B44000347091F81623EC2352091341DB071ED503
:10B450001B4B9A6802B31A6842F480021A601349BF
:10B4600002A805F027FF039B002BBBD0D3E90021E6
:10B470000120904702A805F027FF039B002BF5D180
:10B48000204604B070BD0824204604B070BD42F2CE
:10B49000020000F02FF9E2E74FF480030B60DEE7D3
:10B4A0008E2600208D260020248903003C8903007D
:10B4B0002089030085B602008F26002000E100E00D
:10B4C00074390020F0B5344D2B7883B0002B59D05F
:10B4D000324E334901236846337005F0EBFE019B81
:10B4E00023B90EE005F0F0FE019B53B1D3E9002132
:10B4F0000120904704466846002CF3D1204603B053
:10B50000F0BD2849684605F0D5FE019B4BB1D3E953
:10B51000002102209047684605F0D6FE019B002BD3
:10B52000F5D1002768468DF8007000F06DF8FFF740
:10B530003BFF04469DF800002F7000F08BF8002CB4
:10B54000DCD1194B34709A6802BB184B4FF480025F
:10B55000C3F88020BFF34F8FBFF36F8F1149684648
:10B5600005F0A8FE019B002BC8D0D3E900210320E1
:10B570009047684605F0A8FE019B002BF5D12046B8
:10B5800003B0F0BD0824204603B0F0BD1A6822F4D1
:10B5900080021A60E2E700BF8E2600208D26002080
:10B5A000248903003C8903007439002000E100E095
:10B5B000054B1B7833B1054B1B780BB1FFF782BFEE
:10B5C000FFF7F4BE082070478D2600208E2600204D
:10B5D000014B1878704700BF8E26002000B583B05D
:10B5E0000849684605F066FE019B43B1D3E9002097
:10B5F0009047684605F068FE019B002BF6D103B02A
:10B600005DF804FB3089030070B4EFF3108472B668
:10B610000D4B9A68AAB90D490D4E01259D60D1F8D0
:10B62000805035401D60C1F88060D1F884505D6065
:10B630004FF0FF33C1F88430027004B962B670BCB9
:10B64000704701230370F8E77439002000E100E03F
:10B65000FC06FFBD094B9A687AB170B910B4EFF3DC
:10B66000108172B6064A1C6814605C685460986069
:10B6700001B962B65DF8044B704770477439002019
:10B6800000E100E010B572B604F078F903F0D0FCE8
:10B690000028FBD1104B114C1149E41AE408240492
:10B6A00044F0010003F0ECFD0E4B1B68DB0700D5F6
:10B6B00000BE0D4944F0020003F0E2FDBFF34F8FDE
:10B6C0000A490B4BCA6802F4E0621343CB60BFF334
:10B6D0004F8F00BFFDE700BFE4A5030014A60300E1
:10B6E00048890300F0ED00E05489030000ED00E01C
:10B6F0000400FA0500B585B00346002101AA44F212
:10B700000100CDE901110393FFF7BCFF05B05DF81F
:10B7100004FB00BFF0B504680E7A002C00F07884BA
:10B72000A4F213347C2C00F2C5827C2C00F2C2827D
:10B73000DFE814F074020503E302D402CB02310304
:10B740000E032A03C002C002C002C002C002C0022F
:10B750006702DC02C002C002C002C002CC011603B4
:10B76000EB02C002C002C002F401F4039303C00262
:10B77000C002C002C002FF00D1034F03C002C002DA
:10B78000C002C002C002C0026402C002C002C00205
:10B79000C0021901A2039A03B2035E03C002C002F1
:10B7A000C9038B03BA0340036603C002C002480307
:10B7B000DB015703ED00C002C0023903DB00FB03CD
:10B7C000BD00C203C002C002C002C002C002C0026B
:10B7D000C002C002C002C002C002C002C002C00259
:10B7E000C002C002C002C002C002C900D903C00228
:10B7F000C002C0026E03C002C002C002C002AC00A0
:10B80000C002C002C002C002AC00C002C002C0023E
:10B81000C002C002C0027D00C402C002C002C00259
:10B82000C002B800C002C002C002C002B8000124B9
:10B830000025002A00F0D38307795755A3424FF023
:10B840000005057140F28283171901343D70B04D37
:10B850000F7D2D682D78AF4200F0B6838F7DAF420B
:10B8600009D10025A342057140F2558525460134D2
:10B870000AB107795755DFF8A0C2A64F9CF80050CF
:10B880003F780135EDB28CF800507BE101250024B2
:10B890000AB1077917554024AB42047140F28F83F7
:10B8A0006C1CC6E701240025002AE2D1E3E701244D
:10B8B0000025002A40F037848D7D0571A34240F2B7
:10B8C00068830134FFE001250024002A00F043834F
:10B8D00007791755AB424FF00504047140F2848399
:10B8E000274602EB050C6C1C03E301250024002A0B
:10B8F00040F017840624AB42047140F245830135C1
:10B900000C7D0471AB4240F297836C1CD4E7012597
:10B910000024002A40F009840524AB42047140F25F
:10B920002E836C1C2425A342057140F27B83651C89
:10B93000E0E701240025002A00F00084077957552C
:10B940004FF0000CA34280F804C040F29684651CBE
:10B950000027AB4202F804C0077140F2F983541982
:10B9600001352770F3E001250024002A00F0F5835B
:10B9700007791755AB424FF02404047140F2C78396
:10B98000274605F1010C002463455755047140F228
:10B99000AF8325460CF101071024BB4202F80C507E
:10B9A000047140F29683254607F1010C012463459A
:10B9B000D555047140F27E8325460CEB040705241F
:10B9C000BB4202F80C50047140F26383254607F134
:10B9D000010C24246345D555047140F2508325465B
:10B9E0000CF101070124BB4202F80C50047140F233
:10B9F0003C83254607EB040C03246345D5550471AD
:10BA000040F22E830CF1010702F80C40BB4291F882
:10BA100016C080F804C040F21E837C1C0425A3429B
:10BA200002F807C0057140F2118302EB040C2F46A7
:10BA3000013424259C428CF80070057180F001834C
:10BA40002F46651C1755AB424FF00204047140F2BB
:10BA5000A582274602EB050C6C1C02259C428CF843
:10BA60000070057180F0E3822F46651C1755AB42CC
:10BA70004FF00504047140F28282274602EB050C68
:10BA80006C1C2425A3428CF80070057140F2CA8218
:10BA90002F46651C1755AB424FF00604047140F267
:10BAA0007382571901353C700F7D0771AB4240F22C
:10BAB000C3826C1C5755A3428D7D057140F269828B
:10BAC000171901343D70124D2D6851E001270024F3
:10BAD000002A00F0468205791555BB424FF000045C
:10BAE000047140F2FB827D1C40E101250024002A04
:10BAF00040F01D8302249D42047180F04F826C1C33
:10BB00000225A342057140F29282651C04E700BF42
:10BB10009426002090260020922600200124002553
:10BB2000002A00F09E8307795755A3424FF0020583
:10BB3000057140F25E83671C1555BB424C7E047153
:10BB400040F2EA8202EB070C7D1C8CF800400024D6
:10BB5000AB42047140F227826C1C0AB10779575539
:10BB6000C94D91F814C02D682F78BC4500F0208293
:10BB7000DFF81CE3DFF81CC36F788EF80070002537
:10BB80008CF80050BD423FD3C04F3D780135EDB237
:10BB90003D70B54280F0D0810925A342057140F285
:10BBA0005B83651C002A00F0188307791755AB42A8
:10BBB0004FF00404047140F2BC82274602EB050CEE
:10BBC0006C1C8CF800700F7AB04D2D78BD4280F05F
:10BBD000B48305EB450501F10907DFF8ACC217F89E
:10BBE00005E080F804E03D44A342CCF8005040F268
:10BBF0008482671C002A7FF46EAFB2E10124002525
:10BC0000ABE701250024CDE70725A342057140F2EB
:10BC10009881651C002A7FF45BAE9CE1002A00F04D
:10BC2000F18204791470012B4FF00B04047140F27F
:10BC30002983032702254FF0010C02F80C40AB4288
:10BC400091F814C080F804C040F25C820224BB4228
:10BC500002F805C0047140F24682254607F1010E44
:10BC600002247345D555047140F22E8225460EF10B
:10BC7000010C0224634502F80E50047140F2158253
:10BC80000CF1010702F80C40BB4291F819C080F892
:10BC900004C040F2F9817C1C0025A34202F807C0D1
:10BCA000057140F2E781171901343D70774F002587
:10BCB0003D706EE7002303601846F0BD002A00F0D7
:10BCC000F482057917460124C0E5002A00F0F482C9
:10BCD00005794FF0010C4FF0000ECAE7002A00F082
:10BCE000ED8205794FF0010E0027B9E7002A00F038
:10BCF000018307799446012463E7002A00F0D88283
:10BD000090F804C001270025A0E75F4C002A00F04E
:10BD1000E78207792468944601258CF8007024781E
:10BD20000F7DA74200F0BA818F7DA7427FF40FAF4D
:10BD30000A24AB42047140F2F8826C1CFBE5002A35
:10BD400000F0D3820479022701254FF0000C74E73C
:10BD5000002A00F0AF8290F804C0012400279BE77E
:10BD6000002A00F0C082047901250027DFF818C1FD
:10BD7000D455DCF80040AB426778077140F29F81F0
:10BD800002EB050C0135C8E7002A00F0B182057905
:10BD90001746012489E7002A00F0838204790127ED
:10BDA0004FF0000C6EE7002A00F0A7820779944656
:10BDB000012466E6002A00F08D82047901274FF005
:10BDC000000C21E6002A00F0A282077994460124A3
:10BDD0002FE6002A00F0FF8114460779277001251D
:10BDE000B5E6002A00F08E8207799446012434E6F5
:10BDF000002A00F07182057901274FF0000CDEE582
:10BE0000002A00F05F8290F804C00124002705E6B4
:10BE10001D4C0125276800241AB190F804C002F8CF
:10BE200004C03C780F7DA74200F0E8808F7DA742D8
:10BE30007FF431AD0224AB42047140F271822C4692
:10BE40000135002A7FF425AD25E5002A00F0468261
:10BE5000057901274FF0000CC4E5002A00F0BB81F2
:10BE600004799446012570E6002A00F015820579D0
:10BE700001274FF0000C8FE5002A00F04682077979
:10BE80004FF0010C00257EE594260020912600202D
:10BE90009026002092260020002A00F031820579A9
:10BEA0004FF0010C002781E5002A00F00F82057990
:10BEB0004FF0010C00279FE5002A00F0F48105797E
:10BEC00017460124FEE5002A00F0238205794FF091
:10BED000010C00277DE5002A00F0F68190F804C0EF
:10BEE0000125002434E5002A00F0EA810779944610
:10BEF00001248CF80070C14FC14D3F682D7897F830
:10BF000001C0AC4540F2168297F802C03D44A342FE
:10BF100015F80C5005716CD9651C7DE7002A00F0FE
:10BF2000D78105790127002406E6002A00F0B681B2
:10BF3000047917460125B6E540F29A3303600120E3
:10BF4000F0BD40F26E3303600120F0BD40F2853356
:10BF500003600120F0BD0524AB42047144D96C1C80
:10BF6000C9E7BB42027140F2B9807D1CA34C246832
:10BF7000AB426778077140F2A2800135CFE640F20C
:10BF8000563303600120F0BD4FF456730360012067
:10BF9000F0BD40F25A3303600120F0BD40F252334D
:10BFA00003600120F0BD40F23D3303600120F0BD8D
:10BFB0000525A342057140F21781651CD5E44FF4B5
:10BFC000617303600120F0BD0D6AA3422D780571F5
:10BFD0003FF64CAC40F28A3303600120F0BDA3422F
:10BFE0000271B3D9013432E440F26F3303600120AF
:10BFF000F0BD40F2733303600120F0BD0324AB4277
:10C0000004713FF61CAF4FF45E7303600120F0BD76
:10C0100008240471002B7FF401AE40F21333036057
:10C020000120F0BD40F2573303600120F0BD40F223
:10C03000533303600120F0BD40F259330360012007
:10C04000F0BD40F2513303600120F0BD4FF4547352
:10C0500003600120F0BD40F24D3303600120F0BDCC
:10C060004FF4537303600120F0BD40F24B33036083
:10C070000120F0BD40F21A3303600120F0BD40F210
:10C080004A3303600120F0BD40F219330360012000
:10C09000F0BD40F2493303600120F0BD0224AB4201
:10C0A000047140F2F4806C1C3AE54FF4467303606F
:10C0B0000120F0BD40F2463303600120F0BD40F2A4
:10C0C000293303600120F0BD40F2173303600120E3
:10C0D000F0BD40F2453303600120F0BD4FF44A73D8
:10C0E00003600120F0BD40F2163303600120F0BD73
:10C0F0004FF4517303600120F0BD40F22733036019
:10C100000120F0BD40F2153303600120F0BD40F284
:10C11000433303600120F0BD40F22F330360012060
:10C12000F0BD0779B6E40779C4E407799EE407799E
:10C1300088E440F2223303600120F0BDA342027183
:10C1400040F29B8001340025A342057100F29380E8
:10C1500040F2363303600120F0BD2424AB42047169
:10C16000D5D96C1C0025A3420571C1D90134102515
:10C17000A3420571ADD901340125A342057199D9B6
:10C180002C440525A342057183D901342425A342FB
:10C1900005717FF674AF01340125A34205717FF666
:10C1A00064AF2C440325A34205717FF659AF0134D7
:10C1B0008D7D0571A3427FF64EAF01340425A34265
:10C1C00005717FF643AF013424259C420571BFF40D
:10C1D00038AF651C8EE40125B9E40424AB42047138
:10C1E000A7D90F7A6C1CEFE440F2423303600120C0
:10C1F000F0BD40F22E3303600120F0BD94260020F4
:10C20000922600200B24012B04713BD90324022524
:10C210000F7D0771AB427FF675AF0225A342057112
:10C220007FF661AF01340225A34205717FF64CAF62
:10C2300001340225A34205717FF637AF01344D7EEC
:10C240000571A3427FF620AF01340025A34205719A
:10C250007FF610AF013429E540F22133036001205D
:10C26000F0BD0225A3420571C3D901344D7E05718D
:10C27000A3427FF651AF651C69E440F23533036099
:10C280000120F0BD4FF4457303600120F0BD40F282
:10C290002D3303600120F0BD012468E70125FFF77D
:10C2A0002FBB0124CBE701240DE40124FFF7CFBA13
:10C2B0000124B2E70124C8E70124BAE70124B2E768
:10C2C000012418E6012479E701243CE7012469E709
:10C2D0000124CBE701246BE7012452E701245BE74B
:10C2E000246801251BE5012540E6022401258FE78E
:10C2F0000124DBE43746012466E40124FFF712BB86
:10C30000012439E70124FFF7FBBB01242AE70124BC
:10C310005AE701243AE740F28F3303600120F0BD71
:10C3200040F27D3303600120F0BD4FF44D73036094
:10C330000120F0BD00231B78FFDE024A00231360BA
:10C340001B78FFDE9426002078B910B504460868F3
:10C35000037B202B01D0062010BD00F10E01072227
:10C3600018300AF047FF204610BD0320704700BF79
:10C370004360CA699A4210D38A6910B40260C869DE
:10C380000C6FC01A1C441A44C86100380C6718BFEF
:10C3900001205DF8044B8A61704701F128020260B8
:10C3A00000208B67704700BF2DE9F0470B7888B0FD
:10C3B0000D4606460E2B14D8DFE803F0081C0808CB
:10C3C000130D2C1313181308080808000024204626
:10C3D00008B0BDE8F0874B78DA0934D15B09012B4E
:10C3E00050D00624204608B0BDE8F087C3690BB1E1
:10C3F000032198473368002403F134022046C3E93F
:10C400001E44C3E920445A671C845C62DC6208B0A5
:10C41000BDE8F087027A8B78002A00F06A81817A81
:10C420000930002900F06381F17A415C9942CDD056
:10C430001B061ED4EF7807F0FD03012BC6D0002F9A
:10C4400065D00324C3E713F0600FC3F3411200F07B
:10C450009180012AC5D18B78212BC2D1B1F8072058
:10C46000072ABED10168681C183100F07FFA044623
:10C47000ADE7EC78002C00F09D80032C14BF032462
:10C480000024A4E78B780768202B00F09B80222BE8
:10C49000A7D1B1F80730002BA3D1B1F8035097F81A
:10C4A00020303D8405F0010203F00103934215465C
:10C4B0008CD0C3691BB1C2F10301C9B29847002DEA
:10C4C00084D1337A012B40F21081737B06F10C0486
:10C4D000002B00F00881B37BE05CFCF753F8337A63
:10C4E000012B40F20281737B012B40F2FC80B37B75
:10C4F00023442C465878FCF745F807F13403C7E984
:10C500001E55C7E920557D62FD627B675FE7356890
:10C51000012A05F10C0140F2E480727B012A06F148
:10C520000C0340F2DC800691B27B73490591134401
:10C53000AC6A93F80180002C65D1EA6FEB6AAC67B6
:10C54000C5E91F42002B00F0B980296B1846002274
:10C5500005F1240383E803004046EA6205A901F0DF
:10C56000FBF90446F369002B3FF431AF304600215C
:10C5700098472CE703F01F03012B7FF432AF8C7830
:10C58000062C7FF42EAF05A8039200F079FD03AAD4
:10C5900000920746EA78297930463B4600F094FE3F
:10C5A00005283FF414AF039A3946681C00F0DEF901
:10C5B00004460CE7F369002B3FF408AF3046012135
:10C5C000984704E7B1F80720072A7FF40AAF3B73C6
:10C5D000B1F80730DBB27B7300240DF10B000E378E
:10C5E000CDE9057307948DF80B40FFF70DF8204651
:10C5F00005A901F09DF90446002868D09DF80B00BC
:10C60000FFF728F8E3E6D5F88490686A4C4528BF20
:10C610004C4605F1340A224651460AF0EBFDE86F1C
:10C62000EA6AEF67A9EB04030AEB04010444C5E9D5
:10C630001D13C5F88040002A43D005F12C0797E868
:10C64000030005F12404002284E80300EA62002BC1
:10C650003BD091461BE0696F686A0AF0CBFDD5E9D3
:10C660001D32A96AC5F880100B44521AC5E91D3263
:10C67000F36913B1002130469847EB6A13B397E88A
:10C68000030084E80300AB6FC5F82C90EBB1AA6AF5
:10C690009342E0D2696F686A1A460AF0ABFDD5E9A9
:10C6A0000932A96FE967521A0B44C5E9093253B13F
:10C6B000404605A901F050F9044653E700236B6298
:10C6C00050E700236B6200244CE76B6AEFE70B4BEB
:10C6D000049603A9039300F0BFFC04468EE73B7861
:10C6E000FFDE7B78FFDE2B78FFDE6B78FFDE0B78DA
:10C6F000FFDE5378FFDE00BF71C3020049C30200B2
:10C7000010B503681C8CE40784B015D50B46017A7C
:10C71000012916D9417B00F10C0481B1817B605C59
:10C7200091060CBF0124002401A9CDE90132039434
:10C7300001F0FEF804B010BD082004B010BD0B7865
:10C74000FFDE00235B78FFDE88B3012809D00228D2
:10C7500007D0032805D0042803D0052801D00020E5
:10C76000704738B5154B03EB4000407830B1144B9F
:10C7700053F82040ECB123780BB9A01C38BD002041
:10C7800000F07EFC2178B1B12246C4F101055319B5
:10C79000DCB2234620F8141012F8011F0029F6D14C
:10C7A00001335B00DBB243F44073038038BD0548BE
:10C7B0007047204638BD40F20233F6E7FC8903009B
:10C7C000E48903008289030070B54FF0805286B07F
:10C7D000D2F8A830D2F8A42000926FEA83436FEA1F
:10C7E00093430B4A0B4E9BB202A80D210AF02EFE7A
:10C7F00002AD002404E015F8013B06F8013B0134CA
:10C8000002A80AF07DFE8442F5D306B070BD00BFD9
:10C81000088A030080390020002070472DE9F04F7E
:10C820004B6885B0CDE900020C46002B71D0FCF7B7
:10C83000ABFFE568019B9D4228BF1D468146002D48
:10C840007CD04FF0000A5646D3464FF00108D4E999
:10C850000113AB421F4628BF2F46E9B13A4609EB08
:10C8600006000AF0C7FCD4E90223D21BDB1BC4E993
:10C870000223C4F804B0ED1B3E442AB3002B08BFCA
:10C880004FF00008002DE2D1009BC3F800905E60DD
:10C89000404605B0BDE8F08FABB120463B4650F8AE
:10C8A000101B4A68D2F804A009EB0602D047D4E96D
:10C8B0000223D21BDB1BC4E90223ED1B3E445AB109
:10C8C0004FF0010ADAE7E368BAF1000F04D15BB96F
:10C8D0009846002DBBD1D7E7226812681268226003
:10C8E0004FF0010A002BF3D02168F1B1CDF808B068
:10C8F00003E0A36821680133A3604B6800225F68EE
:10C9000002A80123B8470028F3D12061002D9ED151
:10C91000BAE70B681B681B68002B88D18B68002B5B
:10C9200085D1036043609846B2E76160002EABD0CA
:10C93000019BB34288BF4FF00008A5E72E464FF099
:10C940000108A1E708B5002000F086FFBDE8084017
:10C95000802000F081BF00BF08B5002000F090FFEC
:10C96000BDE80840802000F08BBF00BF70B5C388D1
:10C9700093421E4628BF1646934284B00D4617D8F0
:10C98000002400230DF1030003948DF80330CDE95A
:10C990000156FEF739FE01A9802000F0C9FF0446C8
:10C9A00090B19DF80300FEF755FE204604B070BD1F
:10C9B00080201446FCF798FCB4FBF0F202FB104414
:10C9C000B4FA84F46409DCE7FCF7A2FF80280CD1F8
:10C9D0000A4A0B4B92E8030083E803009DF803002A
:10C9E000FEF738FE204604B070BD9DF80300FEF748
:10C9F00031FE1024204604B070BD00BF6C8A0300D5
:10CA0000C42600202DE9F04F0B780E2B8BB01CD8DC
:10CA100013B3013B0D2B1FD8DFE803F03612071EBE
:10CA2000465A1E1E1E1E127483239B4805F05AFB95
:10CA300030B19A4B01221A60BFF36F8FBFF34F8F53
:10CA4000002420460BB0BDE8F08F852B04D1944B19
:10CA50001A78032A00F01181062420460BB0BDE8A5
:10CA6000F08F8F4B1A78012AEAD08E498E480A78C7
:10CA7000012422F002021C700A7001F065F8002403
:10CA800020460BB0BDE8F08F854B1A78032AE3D01F
:10CA9000844985480A78032422F002021C700A7037
:10CAA000062401F051F8CCE705230DF111008DF8B3
:10CAB0001030FCF7E9FE9DF811307C4E002203F0A7
:10CAC0001F043260032C7DD8DFE804F0AD7E5C509B
:10CAD000C87803280D46BFD0744E3368002B00F091
